:0400000035EF00F0E8
:060008005482D1EF05F067
:100018005480D8CF18F1E8CF19F1E0CF1AF10E01CA
:10002800C1A519EF00F01BEF00F02DEF00F0C9A5F6
:1000380020EF00F022EF00F02DEF00F0C99583ECDF
:100048000BF050C0FEF051C0FFF0FEEC0AF0E1ECFE
:1000580008F01AC1E0FF19C1E8FF18C1D8FF549091
:0600680010003AEF07F062
:1005000000676F746F20307832303030000037EC85
:1005100009F027C00DF028C00EF0C4EC0BF027C086
:1005200029F028C02AF036EC0BF0010E211A2250D7
:10053000D8A49DEF02F09FEF02F0B4EF02F021503B
:10054000D8A4A5EF02F0A7EF02F0A9EF02F0010E88
:10055000016E070E2A6E6C0E296E36EC0BF0010E42
:1005600084EC09F0C1EC0AF00150D8A4BAEF02F013
:10057000BCEF02F0D7EF03F0BAEF03F0010E226EEA
:10058000D7EF03F00E5009E1640E0D5CD8A0CBEF5D
:1005900002F0CDEF02F0F5EF02F0720E0D5C020EEC
:1005A0000E58D8B0D6EF02F0D8EF02F0F5EF02F017
:1005B000020E226E4E500318D8A4E1EF02F0E3EFD2
:1005C00002F0F7EF02F02150D8A4E9EF02F0EBEFD0
:1005D00002F0F7EF02F0030E226E070E2A6E6C0E89
:1005E000296E36EC0BF0F7EF02F0010E016E0350AE
:1005F000D8A4FDEF02F0FFEF02F0D7EF03F0032ADB
:10060000D7EF03F00E5009E1640E0D5CD8A00BEF9C
:1006100003F00DEF03F055EF03F0450E0D5C020EF5
:100620000E58D8B016EF03F018EF03F055EF03F0B3
:10063000010E226E4E500318D8A421EF03F023EFD1
:1006400003F02DEF03F0030E226E070E2A6E6C0EE0
:10065000296E36EC0BF051EF03F02104D8A433EFF0
:1006600003F035EF03F051EF03F04E50035CD8B0C8
:100670003CEF03F03EEF03F051EF03F004C02FF026
:10068000010E306E000E316E2F2A4AEF03F0D89023
:10069000303631362F2E47EF03F0305005123150EF
:1006A0000612032A0406D7EF03F0720E0D5C020E49
:1006B0000E58D8A05EEF03F060EF03F0AEEF03F04A
:1006C0004D0E0D5C040E0E58D8B069EF03F06BEFC1
:1006D00003F0AEEF03F0020E226E2150D8A473EFA8
:1006E00003F075EF03F091EF03F04E50035CD8B0C8
:1006F0007CEF03F07EEF03F091EF03F004C02FF0E6
:10070000010E306E000E316E2F2A8AEF03F0D89062
:10071000303631362F2E87EF03F03050051231502E
:1007200006120406032A4E500318D8A49AEF03F0C9
:100730009CEF03F0D7EF03F02150D8A4A2EF03F011
:10074000A4EF03F0D7EF03F0030E226E070E2A6E1C
:100750006C0E296E36EC0BF0D7EF03F0010E016E34
:10076000D7EF03F0010E016ED7EF03F0010E016E1B
:10077000D7EF03F022502F6E306A3050000AD8B401
:10078000C4EF03F0B6EF03F02F50000AD8B4BEEF69
:1007900002F0010AD8B4C2EF02F0030AD8B402EFA3
:1007A00003F0010AD8B4B2EF03F0B6EF03F0120081
:1007B000C4EC0BF027C03EF028C03FF03EC027F04D
:1007C0003FC028F0296A2A6A55EC0BF0030E221864
:1007D000D8A4EDEF03F0EFEF03F010EF04F0010EFB
:1007E0002A6EF40E296E36EC0BF0000E096E010431
:1007F000D8B4FDEF03F0FFEF03F003EF04F0010EB8
:10080000026E05EF04F07AEC0BF0000E226E000E83
:10081000216E0F0E046E010EBAEC0BF01CEF05F00A
:100820002250D8A416EF04F018EF04F039EF04F0CA
:10083000F40E3E1806E13F04D8A421EF04F023EFA4
:1008400004F039EF04F00F503E1809E110503F1842
:10085000D8B42DEF04F02FEF04F039EF04F00C0EB4
:100860002A6E800E296E36EC0BF0010E086E1CEF1E
:1008700005F02250D8A43FEF04F041EF04F066EFFA
:1008800004F06C0E3E1807E1070E3F18D8A44BEF9A
:1008900004F04DEF04F066EF04F00F503E1809E14C
:1008A00010503F18D8B457EF04F059EF04F066EF3A
:1008B00004F0010E2A6EF40E296E36EC0BF00F0ECA
:1008C000046E010EBAEC0BF01CEF05F02250D8A418
:1008D0006CEF04F06EEF04F0B4EF04F0800E3E18FD
:1008E00007E10C0E3F18D8A478EF04F07AEF04F07B
:1008F000B4EF04F00A50D8B480EF04F082EF04F0B3
:10090000ACEF04F0000EBAEC0BF000EC09F0020EB4
:1009100032240001826F000E3320836F82C027F0E3
:1009200083C028F0B4EC0AF073EC07F033C039F060
:1009300034C03AF00C0E3C6E800E3B6EDEEC07F0DD
:1009400039C00FF03AC010F00FC029F010C02AF0E3
:1009500036EC0BF01CEF05F0BF0E2A6E680E296E08
:1009600036EC0BF01CEF05F02250D8A4BAEF04F0DF
:10097000BCEF04F0D4EF04F00F503E1807E1105024
:100980003F18D8A4C6EF04F0C8EF04F0D4EF04F089
:10099000000E106E000E0F6E000E84EC09F0010EBA
:1009A0006BEC09F01CEF05F02250D8A4DAEF04F04C
:1009B000DCEF04F0FBEF04F0680E3E1807E1BF0E19
:1009C0003F18D8A4E6EF04F0E8EF04F0FBEF04F0E2
:1009D000092A020E0918D8A4F0EF04F0F2EF04F08F
:1009E0001CEF05F0000E096E000E086E000E84EC80
:1009F00009F01CEF05F02204D8B401EF05F003EF75
:100A000005F00CEF05F0020E2218D8A40AEF05F04D
:100A10000CEF05F01CEF05F06C0E3E1807E1070E19
:100A20003F18D8A416EF05F018EF05F01CEF05F0FD
:100A30007AEC0BF01CEF05F01200020E1C6023EFA5
:100A400005F025EF05F038EF05F02050D8A42BEF86
:100A500005F02DEF05F038EF05F01C2A2BEC0AF01D
:100A6000010E286E9A0E276E2BEC0BF08BEF05F023
:100A70002050D8A43EEF05F040EF05F08BEF05F0D5
:100A80004FC02CF020EE0BF0DECF2DF0DDCF2EF09E
:100A90002C2A4EEF05F0D8902E322D322C2E4BEF13
:100AA00005F02DB056EF05F059EF05F0010E5AEFA5
:100AB00005F0000E2F6E1E50D8A461EF05F063EF15
:100AC00005F068EF05F02F50A7EC0BF075EF05F07F
:100AD0002F50D8B46EEF05F071EF05F0010E72EFF4
:100AE00005F0000EA7EC0BF04F06010E286E9A0ED3
:100AF000276E2BEC0BF0010E1E1A2FC01FF04F2893
:100B0000D8A485EF05F087EF05F08BEF05F00F0E09
:100B10004F6E010E206E2050D8B491EF05F093EF88
:100B200005F0D0EF05F01D2A020E1D18D8B49BEF7A
:100B300005F09DEF05F0A5EF05F01F50D8B4A3EF29
:100B400005F0A5EF05F0CAEF05F01F50D8A4ABEFF4
:100B500005F0ADEF05F0B0EF05F0000EA7EC0BF0DF
:100B6000000E1D6E000E1C6E000E206E000E0A6E32
:100B7000000E6BEC09F0070E2A6E6C0E296E36EC37
:100B80000BF0010E84EC09F0000E226E000E216EB7
:100B9000D0EF05F0010E286E9A0E276E2BEC0BF0AD
:100BA0001200D9CF40F0DACF41F0F3CF42F0F4CFCA
:100BB00043F00E01BDA9DFEF05F0E1EF05F0F5EF21
:100BC00005F0C5A9E6EF05F0E8EF05F0F5EF05F053
:100BD0000F0115A3EEEF05F0F0EF05F0F5EF05F0CE
:100BE000159387EC02F054EF06F00E01C1A1FBEF64
:100BF00005F0FDEF05F00FEF06F0C9A102EF06F0DA
:100C000004EF06F00FEF06F0C99152C029F053C06F
:100C10002AF036EC0BF0D8EC03F054EF06F0BDAB45
:100C200014EF06F016EF06F028EF06F0C5AB1BEF49
:100C300006F01DEF06F028EF06F0C59BFCC027F07C
:100C4000FDC028F02BEC0BF01DEC05F054EF06F086
:100C5000BDA92DEF06F02FEF06F041EF06F0C5A974
:100C600034EF06F036EF06F041EF06F00F0105A96C
:100C70003CEF06F03EEF06F041EF06F0059954EF29
:100C800006F00E01C0A947EF06F049EF06F054EF59
:100C900006F0C8A94EEF06F050EF06F054EF06F04C
:100CA000C0EC08F054EF06F043C0F4FF42C0F3FF7D
:100CB00041C0DAFF40C0D9FF5492110001011D6FFD
:100CC00001011D51020DE60EF324D96E000EF42031
:100CD000DA6EDECF1BF1DDCF1CF11BC1D9FF1CC1C9
:100CE000DAFF000EDF6E1D51020DE60EF324D96E01
:100CF000000EF420DA6E10EE01F0DE50E126DD5039
:100D0000E222000EE76E1D51020DE60EF324D96EAD
:100D1000000EF420DA6E10EE02F0DE50E126DD5017
:100D2000E222000EE76E1D51020DE60EF324D96E8D
:100D3000000EF420DA6E10EE03F0DE50E126DD50F6
:100D4000E222000EE76E1D51020DE60EF324D96E6D
:100D5000000EF420DA6E10EE04F0DE50E126DD50D5
:100D6000E222000EE76E1D51020DE60EF324D96E4D
:100D7000000EF420DA6E10EE05F0DE50E126DD50B4
:100D8000E222000EE76E1D51020DE60EF324D96E2D
:100D9000000EF420DA6E10EE06F0DE50E126DD5093
:100DA000E222000EE76E1D51020DE60EF324D96E0D
:100DB000000EF420DA6E10EE07F0DE50E126DD5072
:100DC000E222000EE76E120001011D6F01011D51AC
:100DD000020D440EF324D96E000EF420DA6EDECF3D
:100DE0001BF1DDCF1CF11BC1D9FF1CC1DAFF000EC6
:100DF000DF6E1D51020D440EF324D96E000EF42057
:100E0000DA6E10EE02F0DE50E126DD50E222000E36
:100E1000E76E1D51020D440EF324D96E000EF4202E
:100E2000DA6E10EE03F0DE50E126DD50E222000E15
:100E3000E76E1D51020D440EF324D96E000EF4200E
:100E4000DA6E10EE04F0DE50E126DD50E222000EF4
:100E5000E76E1D51020D440EF324D96E000EF420EE
:100E6000DA6E10EE01F0DE50E126DD50E222000ED7
:100E7000E76E1200140EF66E160EF76E000EF86E88
:100E800000EEE6F010EE16F00900F5CFEEFFE550AB
:100E9000E150FAE15C0EF66E170EF76E000EF86E7A
:100EA00000EE44F010EE0CF00900F5CFEEFFE55037
:100EB000E150FAE101EE00F0180EEE6AE806FDE1FD
:100EC00000EE60F0860EEE6AE806FDE100EE01F04D
:100ED000260EEE6AE806FDE154905492000EF86E7C
:100EE00000016EEF0AF023C027F024C028F025C0CF
:100EF00029F026C02AF02D0E2B6E7F0E2C6E950E3B
:100F00002D6E4C0E2E6EA9EC07F0010E2724236ED9
:100F1000000E2820246E000E2920256E000E2A20A7
:100F2000266E23C035F024C036F025C037F026C029
:100F300038F0120EA1EF07F0D8903832373236323F
:100F40003532E82E9CEF07F035C033F036C034F070
:100F50001200000E2F6E000E306E000E316E000E6D
:100F6000326E27A0B6EF07F0B8EF07F0C0EF07F03A
:100F70002B502F262C5030222D5031222E50322231
:100F8000D8902B362C362D362E36D8902A32293250
:100F9000283227322750281029102A10D8A4D3EF3E
:100FA00007F0D5EF07F0B1EF07F02FC027F030C002
:100FB00028F031C029F032C02AF012003B503C101A
:100FC000D8B4E5EF07F0E7EF07F00BEF08F0010EFC
:100FD0003D6EEFEF07F0D8903B363C363D2A3CAEF5
:100FE000F4EF07F0F6EF07F0EBEF07F03B50395C5A
:100FF0003C503A58D8A0FFEF07F001EF08F005EF9A
:1010000008F03B50395E3C503A5AD8903C323B3263
:101010003D2EF6EF07F039C039F03AC03AF0120031
:10102000000E826E000E836E000E846EF70E876EC9
:10103000CF0E886EB30E896E879CC70E0F010C6FA2
:10104000C20E146F7F0E1C6F100E0B6F000E136F0D
:10105000100E1B6F000E286F000E0A6F000E126F2D
:10106000000E1A6F09691169196908691069186910
:10107000080E256F090E0E01F86F170EB06F1200E3
:10108000000EE4EC06F0010EE4EC06F0020EE4ECD7
:1010900006F0030EE4EC06F0040EE4EC06F0000E9D
:1010A0005EEC06F0010E5EEC06F0020E5EEC06F061
:1010B000030E5EEC06F0040E5EEC06F0050E5EEC30
:1010C00006F0060E5EEC06F0070E5EEC06F0080E6B
:1010D0005EEC06F0090E5EEC06F09AEC0AF01200E7
:1010E0005FEC0BF00A0E01011B191C111D111E11E2
:1010F000D8A47DEF08F07FEF08F085EF08F04BEC07
:101100000BF041EC0BF0D4EC0BF08BEC0BF00A0E77
:1011100001011B191C111D111E11D8A492EF08F01A
:1011200094EF08F098EF08F0D1EC0BF000EF10F01E
:101130001200000E656E000E666E000E676E000EE9
:10114000686E000E636E000E646E000E616E000E1F
:101150000F015A6F000E586F000E596F000E546F3A
:10116000100E556F000E566F000E606E030E536F1B
:10117000000E516F3F0E526F040E5B6F57691200E5
:10118000080E1260C6EF08F0C8EF08F0DEEF08F0B6
:10119000600E1324D96EDA6A000EDA22DF50996EDF
:1011A000132A070E1364D7EF08F0D9EF08F0DBEF2E
:1011B00008F0000E136E122AE0EF08F00E01C0993D
:1011C0001200010E1B6E152A090E1564EAEF08F0D5
:1011D000ECEF08F0FDEF08F0010E1A6E162A090E6A
:1011E0001664F5EF08F0F7EF08F0FBEF08F0010EDA
:1011F000196E000E166E000E156E182A172A1200B0
:10120000BFEC0BF027C02CF028C02DF0040E9DEC95
:1012100009F027C02EF028C02FF018EC0AF02CC0DF
:1012200034F02DC035F071EC0BF027503424326EC1
:1012300028503520336E120001011D6F01011D5130
:10124000D8B425EF09F027EF09F033EF09F00E01CC
:10125000C99550C01BF151C01CF1F2EC0AF00E010F
:10126000C18536EF09F00E01C195C9951200CCCFAA
:101270002CF0CDCF2BF02B50296E2C502D6E29C089
:101280002EF052502D24296E53502E202A6E010E1E
:1012900029242D6E000E2A202E6E2DC027F02EC080
:1012A00028F012008CEC0AF010EC08F0E6EC0AF0E2
:1012B00020EC0BF0CDEC0BF015EC0BF0C9EC0BF0C7
:1012C000B4EC0BF07DEC0AF0F2EC09F0DFEC09F085
:1012D00099EC08F01200296E2950D8B472EF09F089
:1012E00074EF09F080EF09F00E01C59BFCC027F0F8
:1012F000FDC028F02BEC0BF00E01BD8B83EF09F045
:101300000E01BD9BC59B12002B6E2B50D8B48BEFEA
:1013100009F08DEF09F099EF09F00E01C99152C063
:1013200029F053C02AF036EC0BF00E01C1819CEF7E
:1013300009F00E01C191C99112002B6E2BC05AFF0A
:101340000F015B8F5B9D5B815BB1A9EF09F0ABEF98
:1013500009F0A4EF09F05F512A6E296A5E51292431
:10136000276E000E2A20286E120001011B6F01015A
:101370001B51D8B4BEEF09F0C0EF09F0C6EF09F079
:101380000F01168317831593CAEF09F00F01169307
:10139000179315931200276E2750D8B4D2EF09F097
:1013A000D4EF09F0DAEF09F00F01168317831593D4
:1013B000DEEF09F00F011693179315931200000E3C
:1013C000C96E000ECA6E010ECB6E9C0E01011C6F21
:1013D0003F0E1B6FF2EC0AF00E01C995150EC86E98
:1013E000B9951200000ECF6E000ED06E010ED16EB8
:1013F000070E01011C6FCF0E1B6FCEEC0AF00E0121
:10140000C991320ECE6EB9811200000E226E000E0E
:10141000216EA0EC0BF099EC0BF0A7EC0AF0010E9A
:1014200092EC0BF0000E68EC0BF040EC08F01200B0
:101430002C502E02F3CF30F0F4CF31F02C502F028D
:10144000F35031262D502E02F350312630C02CF0AF
:1014500031C02DF0120084B430EF0AF033EF0AF0FF
:10146000010E34EF0AF0000EFF0A276E27462746CA
:1014700084502718FB0B2718846E120001011B6F84
:1014800001011B51D8B447EF0AF049EF0AF04CEFC5
:101490000AF0C8804DEF0AF0C890120001011B6FDE
:1014A00001011B51D8B457EF0AF059EF0AF05CEF75
:1014B0000AF0CE805DEF0AF0CE90120001011B6FA2
:1014C00001011B51D8B467EF0AF069EF0AF06CEF25
:1014D0000AF0D48E6DEF0AF0D49E120052EC09F09F
:1014E00005EC0AF0010E01011F6F050E206F70EC74
:1014F00008F072EF0AF035EF00F0530ED56E100EC3
:10150000D46E010E01011C6F850E1B6FDAEC0AF020
:101510000E01C59BB58B1200000E0E01DC6F000E94
:10152000DD6F000EDE6F000EDF6F000EE06F000E4D
:10153000E16F1200010E5EEC0AF0010E4EEC0AF0B3
:10154000010E3EEC0AF0010E1CEC09F01200000E38
:10155000066E000E056E000E016E000E036E000E8C
:10156000026E0F0E046E1200FF0E2724296EFF0E6E
:1015700028202A6E29C023F02AC024F0256A266A72
:101580001200000E066E000E056E000E016E000EBB
:10159000036E000E026E0F0E046E12001BC152F09D
:1015A0001CC153F001011B1F1C1F1C51CD6E1BC120
:1015B000CCFF12001BC1FCF01CC1FDF001011B1F80
:1015C0001C1F1C51D36E1BC1D2FF1200600E0E01F6
:1015D000D36F000ED56F000ED76F060ED96F000EB9
:1015E000D86F12001BC150F01CC151F001011B1F2C
:1015F0001C1F1C51C76E1BC1C6FF1200FEC050F05D
:10160000FFC051F00001FE1FFF1FFF51C76EFEC05B
:10161000C6FF1200B600AE00A6009E0096008E0027
:101620008600100108010001FFFF0F0116931793B8
:1016300015930699079905990E01B589BD89120080
:10164000080E9E6E900E9C6E240E9D6E440E9A6E39
:10165000000E9B6E120027C0FCF028C0FDF0271E74
:10166000281E2850D36E27C0D2FF120029C052F086
:101670002AC053F0291E2A1E2A50CD6E29C0CCFF45
:101680001200000E0001776F000E786F000E796F68
:10169000000E7A6F120082AC50EF0BF053EF0BF09C
:1016A000828C54EF0BF0829C1200275000017B27A4
:1016B00028507C2329507D232A507E23120077C096
:1016C0001BF178C01CF179C01DF17AC01EF1120027
:1016D00001011B6F01011BB102D0849401D08484ED
:1016E00012007BC027F07CC028F07DC029F07EC0AE
:1016F0002AF01200000E226E000E216E010E076EFF
:10170000C1EC0AF01200010E00017727000E7823C9
:1017100079237A231200115001011B6F1C6B1D6B82
:101720001E6B120001011C6F01011C51B5EC09F088
:101730001200000E0A6E000E0C6E000E0B6E1200F0
:10174000000E076E000E096E000E086E1200276E66
:1017500027B002D0849401D084841200DE00D60029
:10176000CE00C600BE00110F000E0F012F6F2E8B92
:101770002E8F1200286E2850CBEC09F0120050C0BA
:1017800027F051C028F0120052C027F053C028F0B3
:101790001200F28AF28EF28C1200820E0F012C13CC
:0C17A0001200000E116E1200112A12003F
:020000040020DA
:10000000FFFFFFFFFFFFFFFFFFFFFFFFFFFFFFFF00
:10001000FFFFFFFFFFFFFFFFFFFFFFFFFFFFFFFFF0
:10002000FFFFFFFFFFFFFFFFFFFFFFFFFFFFFFFFE0
:10003000FFFFFFFFFFFFFFFFFFFFFFFFFFFFFFFFD0
:10004000FFFFFFFFFFFFFFFFFFFFFFFFFFFFFFFFC0
:10005000FFFFFFFFFFFFFFFFFFFFFFFFFFFFFFFFB0
:10006000FFFFFFFFFFFFFFFFFFFFFFFFFFFFFFFFA0
:10007000FFFFFFFFFFFFFFFFFFFFFFFFFFFFFFFF90
:10008000FFFFFFFFFFFFFFFFFFFFFFFFFFFFFFFF80
:10009000FFFFFFFFFFFFFFFFFFFFFFFFFFFFFFFF70
:1000A000FFFFFFFFFFFFFFFFFFFFFFFFFFFFFFFF60
:1000B000FFFFFFFFFFFFFFFFFFFFFFFFFFFFFFFF50
:1000C000FFFFFFFFFFFFFFFFFFFFFFFFFFFFFFFF40
:1000D000FFFFFFFFFFFFFFFFFFFFFFFFFFFFFFFF30
:1000E000FFFFFFFFFFFFFFFFFFFFFFFFFFFFFFFF20
:1000F000FFFFFFFFFFFFFFFFFFFFFFFFFFFFFFFF10
:020000040030CA
:0C0000008CFF3EFF9FFFFFFFFFFFFFFF94
:00000001FF
